{
  "_format": "hh-sol-artifact-1",
  "contractName": "SupplyChain",
  "sourceName": "contracts/SupplyChain.sol",
  "abi": [
    {
      "inputs": [],
      "stateMutability": "nonpayable",
      "type": "constructor"
    },
    {
      "anonymous": false,
      "inputs": [
        {
          "indexed": false,
          "internalType": "uint256",
          "name": "sku",
          "type": "uint256"
        }
      ],
      "name": "LogForSale",
      "type": "event"
    },
    {
      "anonymous": false,
      "inputs": [
        {
          "indexed": false,
          "internalType": "uint256",
          "name": "sku",
          "type": "uint256"
        }
      ],
      "name": "LogReceived",
      "type": "event"
    },
    {
      "anonymous": false,
      "inputs": [
        {
          "indexed": false,
          "internalType": "uint256",
          "name": "sku",
          "type": "uint256"
        }
      ],
      "name": "LogShipped",
      "type": "event"
    },
    {
      "anonymous": false,
      "inputs": [
        {
          "indexed": false,
          "internalType": "uint256",
          "name": "sku",
          "type": "uint256"
        }
      ],
      "name": "LogSold",
      "type": "event"
    },
    {
      "inputs": [
        {
          "internalType": "string",
          "name": "_name",
          "type": "string"
        },
        {
          "internalType": "uint256",
          "name": "_price",
          "type": "uint256"
        }
      ],
      "name": "addItem",
      "outputs": [
        {
          "internalType": "bool",
          "name": "",
          "type": "bool"
        }
      ],
      "stateMutability": "nonpayable",
      "type": "function"
    },
    {
      "inputs": [
        {
          "internalType": "uint256",
          "name": "sku",
          "type": "uint256"
        }
      ],
      "name": "buyItem",
      "outputs": [],
      "stateMutability": "payable",
      "type": "function"
    },
    {
      "inputs": [
        {
          "internalType": "uint256",
          "name": "_sku",
          "type": "uint256"
        }
      ],
      "name": "fetchItem",
      "outputs": [
        {
          "internalType": "string",
          "name": "",
          "type": "string"
        },
        {
          "internalType": "uint256",
          "name": "",
          "type": "uint256"
        },
        {
          "internalType": "uint256",
          "name": "",
          "type": "uint256"
        },
        {
          "internalType": "uint256",
          "name": "",
          "type": "uint256"
        },
        {
          "internalType": "address",
          "name": "",
          "type": "address"
        },
        {
          "internalType": "address",
          "name": "",
          "type": "address"
        }
      ],
      "stateMutability": "view",
      "type": "function"
    },
    {
      "inputs": [
        {
          "internalType": "uint256",
          "name": "",
          "type": "uint256"
        }
      ],
      "name": "items",
      "outputs": [
        {
          "internalType": "string",
          "name": "name",
          "type": "string"
        },
        {
          "internalType": "uint256",
          "name": "sku",
          "type": "uint256"
        },
        {
          "internalType": "uint256",
          "name": "price",
          "type": "uint256"
        },
        {
          "internalType": "enum SupplyChain.State",
          "name": "state",
          "type": "uint8"
        },
        {
          "internalType": "address payable",
          "name": "seller",
          "type": "address"
        },
        {
          "internalType": "address payable",
          "name": "buyer",
          "type": "address"
        }
      ],
      "stateMutability": "view",
      "type": "function"
    },
    {
      "inputs": [],
      "name": "owner",
      "outputs": [
        {
          "internalType": "address",
          "name": "",
          "type": "address"
        }
      ],
      "stateMutability": "view",
      "type": "function"
    },
    {
      "inputs": [
        {
          "internalType": "uint256",
          "name": "sku",
          "type": "uint256"
        }
      ],
      "name": "receiveItem",
      "outputs": [],
      "stateMutability": "nonpayable",
      "type": "function"
    },
    {
      "inputs": [
        {
          "internalType": "uint256",
          "name": "sku",
          "type": "uint256"
        }
      ],
      "name": "shipItem",
      "outputs": [],
      "stateMutability": "nonpayable",
      "type": "function"
    },
    {
      "inputs": [],
      "name": "skuCount",
      "outputs": [
        {
          "internalType": "uint256",
          "name": "",
          "type": "uint256"
        }
      ],
      "stateMutability": "view",
      "type": "function"
    }
  ],
  "bytecode": "0x608060405234801561001057600080fd5b50336000806101000a81548173ffffffffffffffffffffffffffffffffffffffff021916908373ffffffffffffffffffffffffffffffffffffffff160217905550611465806100606000396000f3fe60806040526004361061007b5760003560e01c8063ad4b9cfb1161004e578063ad4b9cfb1461013c578063bfb231d21461017e578063e7fb74c7146101c0578063f61c899a146101dc5761007b565b8063227024731461008057806362d6bbdf146100ab5780638da5cb5b146100e8578063a26be99914610113575b600080fd5b34801561008c57600080fd5b50610095610205565b6040516100a2919061106d565b60405180910390f35b3480156100b757600080fd5b506100d260048036038101906100cd9190610d91565b61020b565b6040516100df9190610f22565b60405180910390f35b3480156100f457600080fd5b506100fd6103da565b60405161010a9190610f07565b60405180910390f35b34801561011f57600080fd5b5061013a60048036038101906101359190610ded565b6103fe565b005b34801561014857600080fd5b50610163600480360381019061015e9190610ded565b610573565b60405161017596959493929190610fa5565b60405180910390f35b34801561018a57600080fd5b506101a560048036038101906101a09190610ded565b610726565b6040516101b796959493929190610f3d565b60405180910390f35b6101da60048036038101906101d59190610ded565b610837565b005b3480156101e857600080fd5b5061020360048036038101906101fe9190610ded565b610af5565b005b60015481565b60006040518060c001604052808481526020016001548152602001838152602001600060038111156102405761023f6112d7565b5b81526020013373ffffffffffffffffffffffffffffffffffffffff168152602001600073ffffffffffffffffffffffffffffffffffffffff1681525060026000600154815260200190815260200160002060008201518160000190805190602001906102ad929190610c69565b50602082015181600101556040820151816002015560608201518160030160006101000a81548160ff021916908360038111156102ed576102ec6112d7565b5b021790555060808201518160030160016101000a81548173ffffffffffffffffffffffffffffffffffffffff021916908373ffffffffffffffffffffffffffffffffffffffff16021790555060a08201518160040160006101000a81548173ffffffffffffffffffffffffffffffffffffffff021916908373ffffffffffffffffffffffffffffffffffffffff1602179055509050506001805461039191906110fa565b6001819055507f4627c48065af2a9648cbecdd4b9da340c00e501243cd49a8a71c30c987e8b7616001546040516103c8919061106d565b60405180910390a16001905092915050565b60008054906101000a900473ffffffffffffffffffffffffffffffffffffffff1681565b8060026003811115610413576104126112d7565b5b6002600083815260200190815260200160002060030160009054906101000a900460ff166003811115610449576104486112d7565b5b14610489576040517f08c379a00000000000000000000000000000000000000000000000000000000081526004016104809061104d565b60405180910390fd5b6002600083815260200190815260200160002060040160009054906101000a900473ffffffffffffffffffffffffffffffffffffffff168073ffffffffffffffffffffffffffffffffffffffff163373ffffffffffffffffffffffffffffffffffffffff16146104f857600080fd5b60036002600085815260200190815260200160002060030160006101000a81548160ff02191690836003811115610532576105316112d7565b5b02179055507f5a98827d06afe0e04647b3aed26f1ffb77171ad9ac41603c4ef623a6638798c183604051610566919061106d565b60405180910390a1505050565b606060008060008060008060026000898152602001908152602001600020600001805461059f90611245565b80601f01602080910402602001604051908101604052809291908181526020018280546105cb90611245565b80156106185780601f106105ed57610100808354040283529160200191610618565b820191906000526020600020905b8154815290600101906020018083116105fb57829003601f168201915b505050505090506000600260008a81526020019081526020016000206001015490506000600260008b81526020019081526020016000206002015490506000600260008c815260200190815260200160002060030160009054906101000a900460ff16600381111561068d5761068c6112d7565b5b90506000600260008d815260200190815260200160002060030160019054906101000a900473ffffffffffffffffffffffffffffffffffffffff1690506000600260008e815260200190815260200160002060040160009054906101000a900473ffffffffffffffffffffffffffffffffffffffff1690508585858585859b509b509b509b509b509b5050505050505091939550919395565b600260205280600052604060002060009150905080600001805461074990611245565b80601f016020809104026020016040519081016040528092919081815260200182805461077590611245565b80156107c25780601f10610797576101008083540402835291602001916107c2565b820191906000526020600020905b8154815290600101906020018083116107a557829003601f168201915b5050505050908060010154908060020154908060030160009054906101000a900460ff16908060030160019054906101000a900473ffffffffffffffffffffffffffffffffffffffff16908060040160009054906101000a900473ffffffffffffffffffffffffffffffffffffffff16905086565b806000600381111561084c5761084b6112d7565b5b6002600083815260200190815260200160002060030160009054906101000a900460ff166003811115610882576108816112d7565b5b146108c2576040517f08c379a00000000000000000000000000000000000000000000000000000000081526004016108b99061102d565b60405180910390fd5b6002600083815260200190815260200160002060020154803410156108e657600080fd5b82336002600086815260200190815260200160002060040160006101000a81548173ffffffffffffffffffffffffffffffffffffffff021916908373ffffffffffffffffffffffffffffffffffffffff1602179055506002600085815260200190815260200160002060030160019054906101000a900473ffffffffffffffffffffffffffffffffffffffff1673ffffffffffffffffffffffffffffffffffffffff166108fc60026000878152602001908152602001600020600201549081150290604051600060405180830381858888f193505050501580156109ce573d6000803e3d6000fd5b5060016002600086815260200190815260200160002060030160006101000a81548160ff02191690836003811115610a0957610a086112d7565b5b02179055507fe64ca8c671e48636f85f3008c1dd538e36bfa74fb6f2790b56b72fcc33b879ef84604051610a3d919061106d565b60405180910390a160006002600083815260200190815260200160002060020154905060008134610a6e9190611150565b90506002600084815260200190815260200160002060040160009054906101000a900473ffffffffffffffffffffffffffffffffffffffff1673ffffffffffffffffffffffffffffffffffffffff166108fc829081150290604051600060405180830381858888f19350505050158015610aec573d6000803e3d6000fd5b50505050505050565b8060016003811115610b0a57610b096112d7565b5b6002600083815260200190815260200160002060030160009054906101000a900460ff166003811115610b4057610b3f6112d7565b5b14610b80576040517f08c379a0000000000000000000000000000000000000000000000000000000008152600401610b779061100d565b60405180910390fd5b6002600083815260200190815260200160002060030160019054906101000a900473ffffffffffffffffffffffffffffffffffffffff168073ffffffffffffffffffffffffffffffffffffffff163373ffffffffffffffffffffffffffffffffffffffff1614610bef57600080fd5b600280600085815260200190815260200160002060030160006101000a81548160ff02191690836003811115610c2857610c276112d7565b5b02179055507feaf695929fec8154f0eafe7248c0e16855eb9ad09e623be92f669e544d53e85683604051610c5c919061106d565b60405180910390a1505050565b828054610c7590611245565b90600052602060002090601f016020900481019282610c975760008555610cde565b82601f10610cb057805160ff1916838001178555610cde565b82800160010185558215610cde579182015b82811115610cdd578251825591602001919060010190610cc2565b5b509050610ceb9190610cef565b5090565b5b80821115610d08576000816000905550600101610cf0565b5090565b6000610d1f610d1a846110ad565b611088565b905082815260208101848484011115610d3b57610d3a611369565b5b610d46848285611203565b509392505050565b600082601f830112610d6357610d62611364565b5b8135610d73848260208601610d0c565b91505092915050565b600081359050610d8b81611418565b92915050565b60008060408385031215610da857610da7611373565b5b600083013567ffffffffffffffff811115610dc657610dc561136e565b5b610dd285828601610d4e565b9250506020610de385828601610d7c565b9150509250929050565b600060208284031215610e0357610e02611373565b5b6000610e1184828501610d7c565b91505092915050565b610e2381611196565b82525050565b610e3281611184565b82525050565b610e41816111a8565b82525050565b610e50816111f1565b82525050565b6000610e61826110de565b610e6b81856110e9565b9350610e7b818560208601611212565b610e8481611378565b840191505092915050565b6000610e9c6010836110e9565b9150610ea782611389565b602082019050919050565b6000610ebf6014836110e9565b9150610eca826113b2565b602082019050919050565b6000610ee26013836110e9565b9150610eed826113db565b602082019050919050565b610f01816111e7565b82525050565b6000602082019050610f1c6000830184610e29565b92915050565b6000602082019050610f376000830184610e38565b92915050565b600060c0820190508181036000830152610f578189610e56565b9050610f666020830188610ef8565b610f736040830187610ef8565b610f806060830186610e47565b610f8d6080830185610e1a565b610f9a60a0830184610e1a565b979650505050505050565b600060c0820190508181036000830152610fbf8189610e56565b9050610fce6020830188610ef8565b610fdb6040830187610ef8565b610fe86060830186610ef8565b610ff56080830185610e29565b61100260a0830184610e29565b979650505050505050565b6000602082019050818103600083015261102681610e8f565b9050919050565b6000602082019050818103600083015261104681610eb2565b9050919050565b6000602082019050818103600083015261106681610ed5565b9050919050565b60006020820190506110826000830184610ef8565b92915050565b60006110926110a3565b905061109e8282611277565b919050565b6000604051905090565b600067ffffffffffffffff8211156110c8576110c7611335565b5b6110d182611378565b9050602081019050919050565b600081519050919050565b600082825260208201905092915050565b6000611105826111e7565b9150611110836111e7565b9250827fffffffffffffffffffffffffffffffffffffffffffffffffffffffffffffffff03821115611145576111446112a8565b5b828201905092915050565b600061115b826111e7565b9150611166836111e7565b925082821015611179576111786112a8565b5b828203905092915050565b600061118f826111c7565b9050919050565b60006111a1826111c7565b9050919050565b60008115159050919050565b60008190506111c282611404565b919050565b600073ffffffffffffffffffffffffffffffffffffffff82169050919050565b6000819050919050565b60006111fc826111b4565b9050919050565b82818337600083830152505050565b60005b83811015611230578082015181840152602081019050611215565b8381111561123f576000848401525b50505050565b6000600282049050600182168061125d57607f821691505b6020821081141561127157611270611306565b5b50919050565b61128082611378565b810181811067ffffffffffffffff8211171561129f5761129e611335565b5b80604052505050565b7f4e487b7100000000000000000000000000000000000000000000000000000000600052601160045260246000fd5b7f4e487b7100000000000000000000000000000000000000000000000000000000600052602160045260246000fd5b7f4e487b7100000000000000000000000000000000000000000000000000000000600052602260045260246000fd5b7f4e487b7100000000000000000000000000000000000000000000000000000000600052604160045260246000fd5b600080fd5b600080fd5b600080fd5b600080fd5b6000601f19601f8301169050919050565b7f4974656d206973206e6f7420736f6c6400000000000000000000000000000000600082015250565b7f4974656d206973206e6f7420666f722073616c65000000000000000000000000600082015250565b7f4974656d206973206e6f74207368697070656400000000000000000000000000600082015250565b60048110611415576114146112d7565b5b50565b611421816111e7565b811461142c57600080fd5b5056fea2646970667358221220509931002467440465a1ad3caf40f2cf5d4b7c7ba37d31d64005d48912a4521064736f6c63430008070033",
  "linkReferences": {},
  "deployedLinkReferences": {}
}