{
  "_format": "hh-sol-artifact-1",
  "contractName": "TextNFT",
  "sourceName": "contracts/TextNFT.sol",
  "abi": [
    {
      "inputs": [],
      "stateMutability": "nonpayable",
      "type": "constructor"
    },
    {
      "anonymous": false,
      "inputs": [
        {
          "indexed": true,
          "internalType": "address",
          "name": "owner",
          "type": "address"
        },
        {
          "indexed": true,
          "internalType": "address",
          "name": "approved",
          "type": "address"
        },
        {
          "indexed": true,
          "internalType": "uint256",
          "name": "tokenId",
          "type": "uint256"
        }
      ],
      "name": "Approval",
      "type": "event"
    },
    {
      "anonymous": false,
      "inputs": [
        {
          "indexed": true,
          "internalType": "address",
          "name": "owner",
          "type": "address"
        },
        {
          "indexed": true,
          "internalType": "address",
          "name": "operator",
          "type": "address"
        },
        {
          "indexed": false,
          "internalType": "bool",
          "name": "approved",
          "type": "bool"
        }
      ],
      "name": "ApprovalForAll",
      "type": "event"
    },
    {
      "anonymous": false,
      "inputs": [
        {
          "indexed": true,
          "internalType": "address",
          "name": "from",
          "type": "address"
        },
        {
          "indexed": true,
          "internalType": "address",
          "name": "to",
          "type": "address"
        },
        {
          "indexed": true,
          "internalType": "uint256",
          "name": "tokenId",
          "type": "uint256"
        }
      ],
      "name": "Transfer",
      "type": "event"
    },
    {
      "inputs": [
        {
          "internalType": "address",
          "name": "to",
          "type": "address"
        },
        {
          "internalType": "uint256",
          "name": "tokenId",
          "type": "uint256"
        }
      ],
      "name": "approve",
      "outputs": [],
      "stateMutability": "nonpayable",
      "type": "function"
    },
    {
      "inputs": [
        {
          "internalType": "address",
          "name": "owner",
          "type": "address"
        }
      ],
      "name": "balanceOf",
      "outputs": [
        {
          "internalType": "uint256",
          "name": "",
          "type": "uint256"
        }
      ],
      "stateMutability": "view",
      "type": "function"
    },
    {
      "inputs": [],
      "name": "collectionName",
      "outputs": [
        {
          "internalType": "string",
          "name": "",
          "type": "string"
        }
      ],
      "stateMutability": "view",
      "type": "function"
    },
    {
      "inputs": [],
      "name": "collectionSymbol",
      "outputs": [
        {
          "internalType": "string",
          "name": "",
          "type": "string"
        }
      ],
      "stateMutability": "view",
      "type": "function"
    },
    {
      "inputs": [],
      "name": "createTextNFT",
      "outputs": [
        {
          "internalType": "uint256",
          "name": "",
          "type": "uint256"
        }
      ],
      "stateMutability": "nonpayable",
      "type": "function"
    },
    {
      "inputs": [
        {
          "internalType": "uint256",
          "name": "tokenId",
          "type": "uint256"
        }
      ],
      "name": "getApproved",
      "outputs": [
        {
          "internalType": "address",
          "name": "",
          "type": "address"
        }
      ],
      "stateMutability": "view",
      "type": "function"
    },
    {
      "inputs": [
        {
          "internalType": "address",
          "name": "owner",
          "type": "address"
        },
        {
          "internalType": "address",
          "name": "operator",
          "type": "address"
        }
      ],
      "name": "isApprovedForAll",
      "outputs": [
        {
          "internalType": "bool",
          "name": "",
          "type": "bool"
        }
      ],
      "stateMutability": "view",
      "type": "function"
    },
    {
      "inputs": [],
      "name": "name",
      "outputs": [
        {
          "internalType": "string",
          "name": "",
          "type": "string"
        }
      ],
      "stateMutability": "view",
      "type": "function"
    },
    {
      "inputs": [
        {
          "internalType": "uint256",
          "name": "tokenId",
          "type": "uint256"
        }
      ],
      "name": "ownerOf",
      "outputs": [
        {
          "internalType": "address",
          "name": "",
          "type": "address"
        }
      ],
      "stateMutability": "view",
      "type": "function"
    },
    {
      "inputs": [
        {
          "internalType": "uint256",
          "name": "tokenId",
          "type": "uint256"
        }
      ],
      "name": "pickFirstWord",
      "outputs": [
        {
          "internalType": "string",
          "name": "",
          "type": "string"
        }
      ],
      "stateMutability": "view",
      "type": "function"
    },
    {
      "inputs": [
        {
          "internalType": "uint256",
          "name": "tokenId",
          "type": "uint256"
        }
      ],
      "name": "pickSecondWord",
      "outputs": [
        {
          "internalType": "string",
          "name": "",
          "type": "string"
        }
      ],
      "stateMutability": "view",
      "type": "function"
    },
    {
      "inputs": [
        {
          "internalType": "uint256",
          "name": "tokenId",
          "type": "uint256"
        }
      ],
      "name": "pickThirdWord",
      "outputs": [
        {
          "internalType": "string",
          "name": "",
          "type": "string"
        }
      ],
      "stateMutability": "view",
      "type": "function"
    },
    {
      "inputs": [
        {
          "internalType": "address",
          "name": "from",
          "type": "address"
        },
        {
          "internalType": "address",
          "name": "to",
          "type": "address"
        },
        {
          "internalType": "uint256",
          "name": "tokenId",
          "type": "uint256"
        }
      ],
      "name": "safeTransferFrom",
      "outputs": [],
      "stateMutability": "nonpayable",
      "type": "function"
    },
    {
      "inputs": [
        {
          "internalType": "address",
          "name": "from",
          "type": "address"
        },
        {
          "internalType": "address",
          "name": "to",
          "type": "address"
        },
        {
          "internalType": "uint256",
          "name": "tokenId",
          "type": "uint256"
        },
        {
          "internalType": "bytes",
          "name": "_data",
          "type": "bytes"
        }
      ],
      "name": "safeTransferFrom",
      "outputs": [],
      "stateMutability": "nonpayable",
      "type": "function"
    },
    {
      "inputs": [
        {
          "internalType": "address",
          "name": "operator",
          "type": "address"
        },
        {
          "internalType": "bool",
          "name": "approved",
          "type": "bool"
        }
      ],
      "name": "setApprovalForAll",
      "outputs": [],
      "stateMutability": "nonpayable",
      "type": "function"
    },
    {
      "inputs": [
        {
          "internalType": "bytes4",
          "name": "interfaceId",
          "type": "bytes4"
        }
      ],
      "name": "supportsInterface",
      "outputs": [
        {
          "internalType": "bool",
          "name": "",
          "type": "bool"
        }
      ],
      "stateMutability": "view",
      "type": "function"
    },
    {
      "inputs": [],
      "name": "symbol",
      "outputs": [
        {
          "internalType": "string",
          "name": "",
          "type": "string"
        }
      ],
      "stateMutability": "view",
      "type": "function"
    },
    {
      "inputs": [
        {
          "internalType": "uint256",
          "name": "tokenId",
          "type": "uint256"
        }
      ],
      "name": "tokenURI",
      "outputs": [
        {
          "internalType": "string",
          "name": "",
          "type": "string"
        }
      ],
      "stateMutability": "view",
      "type": "function"
    },
    {
      "inputs": [
        {
          "internalType": "address",
          "name": "from",
          "type": "address"
        },
        {
          "internalType": "address",
          "name": "to",
          "type": "address"
        },
        {
          "internalType": "uint256",
          "name": "tokenId",
          "type": "uint256"
        }
      ],
      "name": "transferFrom",
      "outputs": [],
      "stateMutability": "nonpayable",
      "type": "function"
    }
  ],
  "bytecode": "0x608060405260405180610160016040528061012f8152602001620041ac61012f9139600a9080519060200190620000389291906200079c565b506040518060e001604052806040518060400160405280600481526020017f466972650000000000000000000000000000000000000000000000000000000081525081526020016040518060400160405280600481526020017f57696e640000000000000000000000000000000000000000000000000000000081525081526020016040518060400160405280600481526020017f576176650000000000000000000000000000000000000000000000000000000081525081526020016040518060400160405280600581526020017f456172746800000000000000000000000000000000000000000000000000000081525081526020016040518060400160405280600781526020017f5468756e6465720000000000000000000000000000000000000000000000000081525081526020016040518060400160405280600581526020017f537061636500000000000000000000000000000000000000000000000000000081525081526020016040518060400160405280600481526020017f54696d6500000000000000000000000000000000000000000000000000000000815250815250600b906007620001f19291906200082d565b506040518060e001604052806040518060400160405280600581526020017f53776f726400000000000000000000000000000000000000000000000000000081525081526020016040518060400160405280600581526020017f537065617200000000000000000000000000000000000000000000000000000081525081526020016040518060400160405280600681526020017f536869656c64000000000000000000000000000000000000000000000000000081525081526020016040518060400160405280600681526020017f48616d6d6572000000000000000000000000000000000000000000000000000081525081526020016040518060400160405280600581526020017f536162657200000000000000000000000000000000000000000000000000000081525081526020016040518060400160405280600381526020017f417865000000000000000000000000000000000000000000000000000000000081525081526020016040518060400160405280600381526020017f426f770000000000000000000000000000000000000000000000000000000000815250815250600c906007620003aa9291906200082d565b506040518060e001604052806040518060400160405280600481526020017f4c6f72640000000000000000000000000000000000000000000000000000000081525081526020016040518060400160405280600481526020017f4b696e670000000000000000000000000000000000000000000000000000000081525081526020016040518060400160405280600781526020017f456d7065726f720000000000000000000000000000000000000000000000000081525081526020016040518060400160405280600981526020017f56656e657261626c65000000000000000000000000000000000000000000000081525081526020016040518060400160405280600881526020017f416e636573746f7200000000000000000000000000000000000000000000000081525081526020016040518060400160405280600581526020017f5361696e7400000000000000000000000000000000000000000000000000000081525081526020016040518060400160405280600381526020017f476f640000000000000000000000000000000000000000000000000000000000815250815250600d906007620005639291906200082d565b503480156200057157600080fd5b506040518060400160405280600781526020017f546578744e4654000000000000000000000000000000000000000000000000008152506040518060400160405280600481526020017f544e4654000000000000000000000000000000000000000000000000000000008152508160009080519060200190620005f69291906200079c565b5080600190805190602001906200060f9291906200079c565b505050620006226200066860201b60201c565b60089080519060200190620006399291906200079c565b506200064a6200070260201b60201c565b60099080519060200190620006619291906200079c565b5062000986565b606060008054620006799062000921565b80601f0160208091040260200160405190810160405280929190818152602001828054620006a79062000921565b8015620006f85780601f10620006cc57610100808354040283529160200191620006f8565b820191906000526020600020905b815481529060010190602001808311620006da57829003601f168201915b5050505050905090565b606060018054620007139062000921565b80601f0160208091040260200160405190810160405280929190818152602001828054620007419062000921565b8015620007925780601f10620007665761010080835404028352916020019162000792565b820191906000526020600020905b8154815290600101906020018083116200077457829003601f168201915b5050505050905090565b828054620007aa9062000921565b90600052602060002090601f016020900481019282620007ce57600085556200081a565b82601f10620007e957805160ff19168380011785556200081a565b828001600101855582156200081a579182015b8281111562000819578251825591602001919060010190620007fc565b5b50905062000829919062000894565b5090565b82805482825590600052602060002090810192821562000881579160200282015b82811115620008805782518290805190602001906200086f9291906200079c565b50916020019190600101906200084e565b5b509050620008909190620008b3565b5090565b5b80821115620008af57600081600090555060010162000895565b5090565b5b80821115620008d75760008181620008cd9190620008db565b50600101620008b4565b5090565b508054620008e99062000921565b6000825580601f10620008fd57506200091e565b601f0160209004906000526020600020908101906200091d919062000894565b5b50565b600060028204905060018216806200093a57607f821691505b6020821081141562000951576200095062000957565b5b50919050565b7f4e487b7100000000000000000000000000000000000000000000000000000000600052602260045260246000fd5b61381680620009966000396000f3fe608060405234801561001057600080fd5b50600436106101215760003560e01c80636352211e116100ad578063c630338611610071578063c63033861461031a578063c87b56dd1461034a578063e2d2c3081461037a578063e5326ab1146103aa578063e985e9c5146103c857610121565b80636352211e1461026457806370a082311461029457806395d89b41146102c4578063a22cb465146102e2578063b88d4fde146102fe57610121565b806323b872dd116100f457806323b872dd146101c05780632f39352a146101dc5780633777aa6b146101fa5780633bad0d361461021857806342842e0e1461024857610121565b806301ffc9a71461012657806306fdde0314610156578063081812fc14610174578063095ea7b3146101a4575b600080fd5b610140600480360381019061013b9190612347565b6103f8565b60405161014d9190612a4e565b60405180910390f35b61015e6104da565b60405161016b9190612a69565b60405180910390f35b61018e600480360381019061018991906123a1565b61056c565b60405161019b91906129e7565b60405180910390f35b6101be60048036038101906101b99190612307565b6105f1565b005b6101da60048036038101906101d591906121f1565b610709565b005b6101e4610769565b6040516101f19190612a69565b60405180910390f35b6102026107f7565b60405161020f9190612c8b565b60405180910390f35b610232600480360381019061022d91906123a1565b610906565b60405161023f9190612a69565b60405180910390f35b610262600480360381019061025d91906121f1565b6109fe565b005b61027e600480360381019061027991906123a1565b610a1e565b60405161028b91906129e7565b60405180910390f35b6102ae60048036038101906102a99190612184565b610ad0565b6040516102bb9190612c8b565b60405180910390f35b6102cc610b88565b6040516102d99190612a69565b60405180910390f35b6102fc60048036038101906102f791906122c7565b610c1a565b005b61031860048036038101906103139190612244565b610c30565b005b610334600480360381019061032f91906123a1565b610c92565b6040516103419190612a69565b60405180910390f35b610364600480360381019061035f91906123a1565b610d8a565b6040516103719190612a69565b60405180910390f35b610394600480360381019061038f91906123a1565b610edc565b6040516103a19190612a69565b60405180910390f35b6103b2610fd4565b6040516103bf9190612a69565b60405180910390f35b6103e260048036038101906103dd91906121b1565b611062565b6040516103ef9190612a4e565b60405180910390f35b60007f80ac58cd000000000000000000000000000000000000000000000000000000007bffffffffffffffffffffffffffffffffffffffffffffffffffffffff1916827bffffffffffffffffffffffffffffffffffffffffffffffffffffffff191614806104c357507f5b5e139f000000000000000000000000000000000000000000000000000000007bffffffffffffffffffffffffffffffffffffffffffffffffffffffff1916827bffffffffffffffffffffffffffffffffffffffffffffffffffffffff1916145b806104d357506104d2826110f6565b5b9050919050565b6060600080546104e990612f1f565b80601f016020809104026020016040519081016040528092919081815260200182805461051590612f1f565b80156105625780601f1061053757610100808354040283529160200191610562565b820191906000526020600020905b81548152906001019060200180831161054557829003601f168201915b5050505050905090565b600061057782611160565b6105b6576040517f08c379a00000000000000000000000000000000000000000000000000000000081526004016105ad90612beb565b60405180910390fd5b6004600083815260200190815260200160002060009054906101000a900473ffffffffffffffffffffffffffffffffffffffff169050919050565b60006105fc82610a1e565b90508073ffffffffffffffffffffffffffffffffffffffff168373ffffffffffffffffffffffffffffffffffffffff16141561066d576040517f08c379a000000000000000000000000000000000000000000000000000000000815260040161066490612c4b565b60405180910390fd5b8073ffffffffffffffffffffffffffffffffffffffff1661068c6111cc565b73ffffffffffffffffffffffffffffffffffffffff1614806106bb57506106ba816106b56111cc565b611062565b5b6106fa576040517f08c379a00000000000000000000000000000000000000000000000000000000081526004016106f190612b2b565b60405180910390fd5b61070483836111d4565b505050565b61071a6107146111cc565b8261128d565b610759576040517f08c379a000000000000000000000000000000000000000000000000000000000815260040161075090612c6b565b60405180910390fd5b61076483838361136b565b505050565b6009805461077690612f1f565b80601f01602080910402602001604051908101604052809291908181526020018280546107a290612f1f565b80156107ef5780601f106107c4576101008083540402835291602001916107ef565b820191906000526020600020905b8154815290600101906020018083116107d257829003601f168201915b505050505081565b60008061080460076115c7565b9050600061081182610906565b9050600061081e83610c92565b9050600061082b84610edc565b90506000838383604051602001610844939291906128a0565b60405160208183030381529060405290506000600a85858560405160200161086f94939291906128d1565b604051602081830303815290604052905060006108b48361088f846115d5565b6040516020016108a092919061295e565b6040516020818303038152906040526115d5565b90506000816040516020016108c991906129c5565b60405160208183030381529060405290506108e4338961176d565b6108ee888261178b565b6108f860076117ff565b879850505050505050505090565b6060600061093a61091684611815565b60405160200161092691906129a3565b604051602081830303815290604052611976565b9050600b805490508161094d9190612fcb565b9050600b818154811061096357610962613089565b5b90600052602060002001805461097890612f1f565b80601f01602080910402602001604051908101604052809291908181526020018280546109a490612f1f565b80156109f15780601f106109c6576101008083540402835291602001916109f1565b820191906000526020600020905b8154815290600101906020018083116109d457829003601f168201915b5050505050915050919050565b610a1983838360405180602001604052806000815250610c30565b505050565b6000806002600084815260200190815260200160002060009054906101000a900473ffffffffffffffffffffffffffffffffffffffff169050600073ffffffffffffffffffffffffffffffffffffffff168173ffffffffffffffffffffffffffffffffffffffff161415610ac7576040517f08c379a0000000000000000000000000000000000000000000000000000000008152600401610abe90612b6b565b60405180910390fd5b80915050919050565b60008073ffffffffffffffffffffffffffffffffffffffff168273ffffffffffffffffffffffffffffffffffffffff161415610b41576040517f08c379a0000000000000000000000000000000000000000000000000000000008152600401610b3890612b4b565b60405180910390fd5b600360008373ffffffffffffffffffffffffffffffffffffffff1673ffffffffffffffffffffffffffffffffffffffff168152602001908152602001600020549050919050565b606060018054610b9790612f1f565b80601f0160208091040260200160405190810160405280929190818152602001828054610bc390612f1f565b8015610c105780601f10610be557610100808354040283529160200191610c10565b820191906000526020600020905b815481529060010190602001808311610bf357829003601f168201915b5050505050905090565b610c2c610c256111cc565b83836119a9565b5050565b610c41610c3b6111cc565b8361128d565b610c80576040517f08c379a0000000000000000000000000000000000000000000000000000000008152600401610c7790612c6b565b60405180910390fd5b610c8c84848484611b16565b50505050565b60606000610cc6610ca284611815565b604051602001610cb2919061291a565b604051602081830303815290604052611976565b9050600c8054905081610cd99190612fcb565b9050600c8181548110610cef57610cee613089565b5b906000526020600020018054610d0490612f1f565b80601f0160208091040260200160405190810160405280929190818152602001828054610d3090612f1f565b8015610d7d5780601f10610d5257610100808354040283529160200191610d7d565b820191906000526020600020905b815481529060010190602001808311610d6057829003601f168201915b5050505050915050919050565b6060610d9582611160565b610dd4576040517f08c379a0000000000000000000000000000000000000000000000000000000008152600401610dcb90612bcb565b60405180910390fd5b6000600660008481526020019081526020016000208054610df490612f1f565b80601f0160208091040260200160405190810160405280929190818152602001828054610e2090612f1f565b8015610e6d5780601f10610e4257610100808354040283529160200191610e6d565b820191906000526020600020905b815481529060010190602001808311610e5057829003601f168201915b505050505090506000610e7e611b72565b9050600081511415610e94578192505050610ed7565b600082511115610ec9578082604051602001610eb192919061287c565b60405160208183030381529060405292505050610ed7565b610ed284611b89565b925050505b919050565b60606000610f10610eec84611815565b604051602001610efc919061293c565b604051602081830303815290604052611976565b9050600d8054905081610f239190612fcb565b9050600d8181548110610f3957610f38613089565b5b906000526020600020018054610f4e90612f1f565b80601f0160208091040260200160405190810160405280929190818152602001828054610f7a90612f1f565b8015610fc75780601f10610f9c57610100808354040283529160200191610fc7565b820191906000526020600020905b815481529060010190602001808311610faa57829003601f168201915b5050505050915050919050565b60088054610fe190612f1f565b80601f016020809104026020016040519081016040528092919081815260200182805461100d90612f1f565b801561105a5780601f1061102f5761010080835404028352916020019161105a565b820191906000526020600020905b81548152906001019060200180831161103d57829003601f168201915b505050505081565b6000600560008473ffffffffffffffffffffffffffffffffffffffff1673ffffffffffffffffffffffffffffffffffffffff16815260200190815260200160002060008373ffffffffffffffffffffffffffffffffffffffff1673ffffffffffffffffffffffffffffffffffffffff16815260200190815260200160002060009054906101000a900460ff16905092915050565b60007f01ffc9a7000000000000000000000000000000000000000000000000000000007bffffffffffffffffffffffffffffffffffffffffffffffffffffffff1916827bffffffffffffffffffffffffffffffffffffffffffffffffffffffff1916149050919050565b60008073ffffffffffffffffffffffffffffffffffffffff166002600084815260200190815260200160002060009054906101000a900473ffffffffffffffffffffffffffffffffffffffff1673ffffffffffffffffffffffffffffffffffffffff1614159050919050565b600033905090565b816004600083815260200190815260200160002060006101000a81548173ffffffffffffffffffffffffffffffffffffffff021916908373ffffffffffffffffffffffffffffffffffffffff160217905550808273ffffffffffffffffffffffffffffffffffffffff1661124783610a1e565b73ffffffffffffffffffffffffffffffffffffffff167f8c5be1e5ebec7d5bd14f71427d1e84f3dd0314c0f7b2291e5b200ac8c7c3b92560405160405180910390a45050565b600061129882611160565b6112d7576040517f08c379a00000000000000000000000000000000000000000000000000000000081526004016112ce90612b0b565b60405180910390fd5b60006112e283610a1e565b90508073ffffffffffffffffffffffffffffffffffffffff168473ffffffffffffffffffffffffffffffffffffffff16148061135157508373ffffffffffffffffffffffffffffffffffffffff166113398461056c565b73ffffffffffffffffffffffffffffffffffffffff16145b8061136257506113618185611062565b5b91505092915050565b8273ffffffffffffffffffffffffffffffffffffffff1661138b82610a1e565b73ffffffffffffffffffffffffffffffffffffffff16146113e1576040517f08c379a00000000000000000000000000000000000000000000000000000000081526004016113d890612c0b565b60405180910390fd5b600073ffffffffffffffffffffffffffffffffffffffff168273ffffffffffffffffffffffffffffffffffffffff161415611451576040517f08c379a000000000000000000000000000000000000000000000000000000000815260040161144890612acb565b60405180910390fd5b61145c838383611c30565b6114676000826111d4565b6001600360008573ffffffffffffffffffffffffffffffffffffffff1673ffffffffffffffffffffffffffffffffffffffff16815260200190815260200160002060008282546114b79190612e35565b925050819055506001600360008473ffffffffffffffffffffffffffffffffffffffff1673ffffffffffffffffffffffffffffffffffffffff168152602001908152602001600020600082825461150e9190612d54565b92505081905550816002600083815260200190815260200160002060006101000a81548173ffffffffffffffffffffffffffffffffffffffff021916908373ffffffffffffffffffffffffffffffffffffffff160217905550808273ffffffffffffffffffffffffffffffffffffffff168473ffffffffffffffffffffffffffffffffffffffff167fddf252ad1be2c89b69c2b068fc378daa952ba7f163c4a11628f55a4df523b3ef60405160405180910390a4505050565b600081600001549050919050565b606060008251905060008114156115fe5760405180602001604052806000815250915050611768565b6000600360028361160f9190612d54565b6116199190612daa565b60046116259190612ddb565b905060006020826116369190612d54565b67ffffffffffffffff81111561164f5761164e6130b8565b5b6040519080825280601f01601f1916602001820160405280156116815781602001600182028036833780820191505090505b50905060006040518060600160405280604081526020016137a1604091399050600181016020830160005b868110156117255760038101905062ffffff818a015116603f8160121c168401518060081b905060ff603f83600c1c1686015116810190508060081b905060ff603f8360061c1686015116810190508060081b905060ff603f831686015116810190508060e01b905080845260048401935050506116ac565b50600386066001811461173f576002811461174f5761175a565b613d3d60f01b600283035261175a565b603d60f81b60018303525b508484525050819450505050505b919050565b611787828260405180602001604052806000815250611c35565b5050565b61179482611160565b6117d3576040517f08c379a00000000000000000000000000000000000000000000000000000000081526004016117ca90612b8b565b60405180910390fd5b806006600084815260200190815260200160002090805190602001906117fa929190612008565b505050565b6001816000016000828254019250508190555050565b6060600082141561185d576040518060400160405280600181526020017f30000000000000000000000000000000000000000000000000000000000000008152509050611971565b600082905060005b6000821461188f57808061187890612f82565b915050600a826118889190612daa565b9150611865565b60008167ffffffffffffffff8111156118ab576118aa6130b8565b5b6040519080825280601f01601f1916602001820160405280156118dd5781602001600182028036833780820191505090505b5090505b6000851461196a576001826118f69190612e35565b9150600a856119059190612fcb565b60306119119190612d54565b60f81b81838151811061192757611926613089565b5b60200101907effffffffffffffffffffffffffffffffffffffffffffffffffffffffffffff1916908160001a905350600a856119639190612daa565b94506118e1565b8093505050505b919050565b6000816040516020016119899190612865565b6040516020818303038152906040528051906020012060001c9050919050565b8173ffffffffffffffffffffffffffffffffffffffff168373ffffffffffffffffffffffffffffffffffffffff161415611a18576040517f08c379a0000000000000000000000000000000000000000000000000000000008152600401611a0f90612aeb565b60405180910390fd5b80600560008573ffffffffffffffffffffffffffffffffffffffff1673ffffffffffffffffffffffffffffffffffffffff16815260200190815260200160002060008473ffffffffffffffffffffffffffffffffffffffff1673ffffffffffffffffffffffffffffffffffffffff16815260200190815260200160002060006101000a81548160ff0219169083151502179055508173ffffffffffffffffffffffffffffffffffffffff168373ffffffffffffffffffffffffffffffffffffffff167f17307eab39ab6107e8899845ad3d59bd9653f200f220920489ca2b5937696c3183604051611b099190612a4e565b60405180910390a3505050565b611b2184848461136b565b611b2d84848484611c90565b611b6c576040517f08c379a0000000000000000000000000000000000000000000000000000000008152600401611b6390612a8b565b60405180910390fd5b50505050565b606060405180602001604052806000815250905090565b6060611b9482611160565b611bd3576040517f08c379a0000000000000000000000000000000000000000000000000000000008152600401611bca90612c2b565b60405180910390fd5b6000611bdd611b72565b90506000815111611bfd5760405180602001604052806000815250611c28565b80611c0784611815565b604051602001611c1892919061287c565b6040516020818303038152906040525b915050919050565b505050565b611c3f8383611e27565b611c4c6000848484611c90565b611c8b576040517f08c379a0000000000000000000000000000000000000000000000000000000008152600401611c8290612a8b565b60405180910390fd5b505050565b6000611cb18473ffffffffffffffffffffffffffffffffffffffff16611ff5565b15611e1a578373ffffffffffffffffffffffffffffffffffffffff1663150b7a02611cda6111cc565b8786866040518563ffffffff1660e01b8152600401611cfc9493929190612a02565b602060405180830381600087803b158015611d1657600080fd5b505af1925050508015611d4757506040513d601f19601f82011682018060405250810190611d449190612374565b60015b611dca573d8060008114611d77576040519150601f19603f3d011682016040523d82523d6000602084013e611d7c565b606091505b50600081511415611dc2576040517f08c379a0000000000000000000000000000000000000000000000000000000008152600401611db990612a8b565b60405180910390fd5b805181602001fd5b63150b7a0260e01b7bffffffffffffffffffffffffffffffffffffffffffffffffffffffff1916817bffffffffffffffffffffffffffffffffffffffffffffffffffffffff191614915050611e1f565b600190505b949350505050565b600073ffffffffffffffffffffffffffffffffffffffff168273ffffffffffffffffffffffffffffffffffffffff161415611e97576040517f08c379a0000000000000000000000000000000000000000000000000000000008152600401611e8e90612bab565b60405180910390fd5b611ea081611160565b15611ee0576040517f08c379a0000000000000000000000000000000000000000000000000000000008152600401611ed790612aab565b60405180910390fd5b611eec60008383611c30565b6001600360008473ffffffffffffffffffffffffffffffffffffffff1673ffffffffffffffffffffffffffffffffffffffff1681526020019081526020016000206000828254611f3c9190612d54565b92505081905550816002600083815260200190815260200160002060006101000a81548173ffffffffffffffffffffffffffffffffffffffff021916908373ffffffffffffffffffffffffffffffffffffffff160217905550808273ffffffffffffffffffffffffffffffffffffffff16600073ffffffffffffffffffffffffffffffffffffffff167fddf252ad1be2c89b69c2b068fc378daa952ba7f163c4a11628f55a4df523b3ef60405160405180910390a45050565b600080823b905060008111915050919050565b82805461201490612f1f565b90600052602060002090601f016020900481019282612036576000855561207d565b82601f1061204f57805160ff191683800117855561207d565b8280016001018555821561207d579182015b8281111561207c578251825591602001919060010190612061565b5b50905061208a919061208e565b5090565b5b808211156120a757600081600090555060010161208f565b5090565b60006120be6120b984612ccb565b612ca6565b9050828152602081018484840111156120da576120d96130ec565b5b6120e5848285612edd565b509392505050565b6000813590506120fc81613744565b92915050565b6000813590506121118161375b565b92915050565b60008135905061212681613772565b92915050565b60008151905061213b81613772565b92915050565b600082601f830112612156576121556130e7565b5b81356121668482602086016120ab565b91505092915050565b60008135905061217e81613789565b92915050565b60006020828403121561219a576121996130f6565b5b60006121a8848285016120ed565b91505092915050565b600080604083850312156121c8576121c76130f6565b5b60006121d6858286016120ed565b92505060206121e7858286016120ed565b9150509250929050565b60008060006060848603121561220a576122096130f6565b5b6000612218868287016120ed565b9350506020612229868287016120ed565b925050604061223a8682870161216f565b9150509250925092565b6000806000806080858703121561225e5761225d6130f6565b5b600061226c878288016120ed565b945050602061227d878288016120ed565b935050604061228e8782880161216f565b925050606085013567ffffffffffffffff8111156122af576122ae6130f1565b5b6122bb87828801612141565b91505092959194509250565b600080604083850312156122de576122dd6130f6565b5b60006122ec858286016120ed565b92505060206122fd85828601612102565b9150509250929050565b6000806040838503121561231e5761231d6130f6565b5b600061232c858286016120ed565b925050602061233d8582860161216f565b9150509250929050565b60006020828403121561235d5761235c6130f6565b5b600061236b84828501612117565b91505092915050565b60006020828403121561238a576123896130f6565b5b60006123988482850161212c565b91505092915050565b6000602082840312156123b7576123b66130f6565b5b60006123c58482850161216f565b91505092915050565b6123d781612e69565b82525050565b6123e681612e7b565b82525050565b60006123f782612d11565b6124018185612d27565b9350612411818560208601612eec565b61241a816130fb565b840191505092915050565b600061243082612d1c565b61243a8185612d38565b935061244a818560208601612eec565b612453816130fb565b840191505092915050565b600061246982612d1c565b6124738185612d49565b9350612483818560208601612eec565b80840191505092915050565b6000815461249c81612f1f565b6124a68186612d49565b945060018216600081146124c157600181146124d257612505565b60ff19831686528186019350612505565b6124db85612cfc565b60005b838110156124fd578154818901526001820191506020810190506124de565b838801955050505b50505092915050565b600061251b603283612d38565b91506125268261310c565b604082019050919050565b600061253e601c83612d38565b91506125498261315b565b602082019050919050565b6000612561600683612d49565b915061256c82613184565b600682019050919050565b6000612584602483612d38565b915061258f826131ad565b604082019050919050565b60006125a7601983612d38565b91506125b2826131fc565b602082019050919050565b60006125ca602c83612d38565b91506125d582613225565b604082019050919050565b60006125ed600d83612d49565b91506125f882613274565b600d82019050919050565b6000612610603883612d38565b915061261b8261329d565b604082019050919050565b6000612633602a83612d38565b915061263e826132ec565b604082019050919050565b6000612656602983612d38565b91506126618261333b565b604082019050919050565b6000612679602e83612d38565b91506126848261338a565b604082019050919050565b600061269c600483612d49565b91506126a7826133d9565b600482019050919050565b60006126bf600283612d49565b91506126ca82613402565b600282019050919050565b60006126e2602083612d38565b91506126ed8261342b565b602082019050919050565b6000612705603183612d38565b915061271082613454565b604082019050919050565b6000612728602c83612d38565b9150612733826134a3565b604082019050919050565b600061274b602983612d38565b9150612756826134f2565b604082019050919050565b600061276e602f83612d38565b915061277982613541565b604082019050919050565b6000612791600a83612d49565b915061279c82613590565b600a82019050919050565b60006127b4600783612d49565b91506127bf826135b9565b600782019050919050565b60006127d7602183612d38565b91506127e2826135e2565b604082019050919050565b60006127fa601d83612d49565b915061280582613631565b601d82019050919050565b600061281d603183612d38565b91506128288261365a565b604082019050919050565b6000612840606883612d49565b915061284b826136a9565b606882019050919050565b61285f81612ed3565b82525050565b6000612871828461245e565b915081905092915050565b6000612888828561245e565b9150612894828461245e565b91508190509392505050565b60006128ac828661245e565b91506128b8828561245e565b91506128c4828461245e565b9150819050949350505050565b60006128dd828761248f565b91506128e9828661245e565b91506128f5828561245e565b9150612901828461245e565b915061290c826125e0565b915081905095945050505050565b600061292582612554565b9150612931828461245e565b915081905092915050565b60006129478261268f565b9150612953828461245e565b915081905092915050565b600061296982612784565b9150612975828561245e565b915061298082612833565b915061298c828461245e565b9150612997826126b2565b91508190509392505050565b60006129ae826127a7565b91506129ba828461245e565b915081905092915050565b60006129d0826127ed565b91506129dc828461245e565b915081905092915050565b60006020820190506129fc60008301846123ce565b92915050565b6000608082019050612a1760008301876123ce565b612a2460208301866123ce565b612a316040830185612856565b8181036060830152612a4381846123ec565b905095945050505050565b6000602082019050612a6360008301846123dd565b92915050565b60006020820190508181036000830152612a838184612425565b905092915050565b60006020820190508181036000830152612aa48161250e565b9050919050565b60006020820190508181036000830152612ac481612531565b9050919050565b60006020820190508181036000830152612ae481612577565b9050919050565b60006020820190508181036000830152612b048161259a565b9050919050565b60006020820190508181036000830152612b24816125bd565b9050919050565b60006020820190508181036000830152612b4481612603565b9050919050565b60006020820190508181036000830152612b6481612626565b9050919050565b60006020820190508181036000830152612b8481612649565b9050919050565b60006020820190508181036000830152612ba48161266c565b9050919050565b60006020820190508181036000830152612bc4816126d5565b9050919050565b60006020820190508181036000830152612be4816126f8565b9050919050565b60006020820190508181036000830152612c048161271b565b9050919050565b60006020820190508181036000830152612c248161273e565b9050919050565b60006020820190508181036000830152612c4481612761565b9050919050565b60006020820190508181036000830152612c64816127ca565b9050919050565b60006020820190508181036000830152612c8481612810565b9050919050565b6000602082019050612ca06000830184612856565b92915050565b6000612cb0612cc1565b9050612cbc8282612f51565b919050565b6000604051905090565b600067ffffffffffffffff821115612ce657612ce56130b8565b5b612cef826130fb565b9050602081019050919050565b60008190508160005260206000209050919050565b600081519050919050565b600081519050919050565b600082825260208201905092915050565b600082825260208201905092915050565b600081905092915050565b6000612d5f82612ed3565b9150612d6a83612ed3565b9250827fffffffffffffffffffffffffffffffffffffffffffffffffffffffffffffffff03821115612d9f57612d9e612ffc565b5b828201905092915050565b6000612db582612ed3565b9150612dc083612ed3565b925082612dd057612dcf61302b565b5b828204905092915050565b6000612de682612ed3565b9150612df183612ed3565b9250817fffffffffffffffffffffffffffffffffffffffffffffffffffffffffffffffff0483118215151615612e2a57612e29612ffc565b5b828202905092915050565b6000612e4082612ed3565b9150612e4b83612ed3565b925082821015612e5e57612e5d612ffc565b5b828203905092915050565b6000612e7482612eb3565b9050919050565b60008115159050919050565b60007fffffffff0000000000000000000000000000000000000000000000000000000082169050919050565b600073ffffffffffffffffffffffffffffffffffffffff82169050919050565b6000819050919050565b82818337600083830152505050565b60005b83811015612f0a578082015181840152602081019050612eef565b83811115612f19576000848401525b50505050565b60006002820490506001821680612f3757607f821691505b60208210811415612f4b57612f4a61305a565b5b50919050565b612f5a826130fb565b810181811067ffffffffffffffff82111715612f7957612f786130b8565b5b80604052505050565b6000612f8d82612ed3565b91507fffffffffffffffffffffffffffffffffffffffffffffffffffffffffffffffff821415612fc057612fbf612ffc565b5b600182019050919050565b6000612fd682612ed3565b9150612fe183612ed3565b925082612ff157612ff061302b565b5b828206905092915050565b7f4e487b7100000000000000000000000000000000000000000000000000000000600052601160045260246000fd5b7f4e487b7100000000000000000000000000000000000000000000000000000000600052601260045260246000fd5b7f4e487b7100000000000000000000000000000000000000000000000000000000600052602260045260246000fd5b7f4e487b7100000000000000000000000000000000000000000000000000000000600052603260045260246000fd5b7f4e487b7100000000000000000000000000000000000000000000000000000000600052604160045260246000fd5b600080fd5b600080fd5b600080fd5b600080fd5b6000601f19601f8301169050919050565b7f4552433732313a207472616e7366657220746f206e6f6e20455243373231526560008201527f63656976657220696d706c656d656e7465720000000000000000000000000000602082015250565b7f4552433732313a20746f6b656e20616c7265616479206d696e74656400000000600082015250565b7f776561706f6e0000000000000000000000000000000000000000000000000000600082015250565b7f4552433732313a207472616e7366657220746f20746865207a65726f2061646460008201527f7265737300000000000000000000000000000000000000000000000000000000602082015250565b7f4552433732313a20617070726f766520746f2063616c6c657200000000000000600082015250565b7f4552433732313a206f70657261746f7220717565727920666f72206e6f6e657860008201527f697374656e7420746f6b656e0000000000000000000000000000000000000000602082015250565b7f3c2f746578743e3c2f7376673e00000000000000000000000000000000000000600082015250565b7f4552433732313a20617070726f76652063616c6c6572206973206e6f74206f7760008201527f6e6572206e6f7220617070726f76656420666f7220616c6c0000000000000000602082015250565b7f4552433732313a2062616c616e636520717565727920666f7220746865207a6560008201527f726f206164647265737300000000000000000000000000000000000000000000602082015250565b7f4552433732313a206f776e657220717565727920666f72206e6f6e657869737460008201527f656e7420746f6b656e0000000000000000000000000000000000000000000000602082015250565b7f45524337323155524953746f726167653a2055524920736574206f66206e6f6e60008201527f6578697374656e7420746f6b656e000000000000000000000000000000000000602082015250565b7f72616e6b00000000000000000000000000000000000000000000000000000000600082015250565b7f227d000000000000000000000000000000000000000000000000000000000000600082015250565b7f4552433732313a206d696e7420746f20746865207a65726f2061646472657373600082015250565b7f45524337323155524953746f726167653a2055524920717565727920666f722060008201527f6e6f6e6578697374656e7420746f6b656e000000000000000000000000000000602082015250565b7f4552433732313a20617070726f76656420717565727920666f72206e6f6e657860008201527f697374656e7420746f6b656e0000000000000000000000000000000000000000602082015250565b7f4552433732313a207472616e73666572206f6620746f6b656e2074686174206960008201527f73206e6f74206f776e0000000000000000000000000000000000000000000000602082015250565b7f4552433732314d657461646174613a2055524920717565727920666f72206e6f60008201527f6e6578697374656e7420746f6b656e0000000000000000000000000000000000602082015250565b7f7b226e616d65223a202200000000000000000000000000000000000000000000600082015250565b7f656c656d656e7400000000000000000000000000000000000000000000000000600082015250565b7f4552433732313a20617070726f76616c20746f2063757272656e74206f776e6560008201527f7200000000000000000000000000000000000000000000000000000000000000602082015250565b7f646174613a6170706c69636174696f6e2f6a736f6e3b6261736536342c000000600082015250565b7f4552433732313a207472616e736665722063616c6c6572206973206e6f74206f60008201527f776e6572206e6f7220617070726f766564000000000000000000000000000000602082015250565b7f222c20226465736372697074696f6e223a20224120686967686c79206163636c60008201527f61696d656420636f6c6c656374696f6e20457465726e616c2057617272696f7260208201527f73222c2022696d616765223a2022646174613a696d6167652f7376672b786d6c60408201527f3b6261736536342c000000000000000000000000000000000000000000000000606082015250565b61374d81612e69565b811461375857600080fd5b50565b61376481612e7b565b811461376f57600080fd5b50565b61377b81612e87565b811461378657600080fd5b50565b61379281612ed3565b811461379d57600080fd5b5056fe4142434445464748494a4b4c4d4e4f505152535455565758595a6162636465666768696a6b6c6d6e6f707172737475767778797a303132333435363738392b2fa2646970667358221220dd11692a4814d4bb3284c44f53bfef5c09cf99f5d449ce40cc4973b81320be7a64736f6c634300080700333c73766720786d6c6e733d27687474703a2f2f7777772e77332e6f72672f323030302f73766727207072657365727665417370656374526174696f3d27784d696e594d696e206d656574272076696577426f783d273020302033353020333530273e3c7374796c653e2e62617365207b2066696c6c3a2077686974653b20666f6e742d66616d696c793a2073657269663b20666f6e742d73697a653a20323470783b207d3c2f7374796c653e3c726563742077696474683d273130302527206865696768743d2731303025272066696c6c3d27626c61636b27202f3e3c7465787420783d273530252720793d273530252720636c6173733d27626173652720646f6d696e616e742d626173656c696e653d276d6964646c652720746578742d616e63686f723d276d6964646c65273e",
  "linkReferences": {},
  "deployedLinkReferences": {}
}